{
  "address": "0x2f438F0bC13076d4dBF3eEbC2726F3186CeA52Cd",
  "abi": [
    {
      "inputs": [
        {
          "internalType": "address",
          "name": "_accountFactory",
          "type": "address"
        }
      ],
      "stateMutability": "nonpayable",
      "type": "constructor"
    },
    {
      "anonymous": false,
      "inputs": [
        {
          "indexed": false,
          "internalType": "address",
          "name": "newAdmin",
          "type": "address"
        },
        {
          "indexed": false,
          "internalType": "address",
          "name": "oldAdmin",
          "type": "address"
        }
      ],
      "name": "NewAdmin",
      "type": "event"
    },
    {
      "anonymous": false,
      "inputs": [
        {
          "indexed": false,
          "internalType": "address",
          "name": "newPendingAdmin",
          "type": "address"
        },
        {
          "indexed": false,
          "internalType": "address",
          "name": "oldPendingAdmin",
          "type": "address"
        }
      ],
      "name": "NewPendingAdmin",
      "type": "event"
    },
    {
      "anonymous": false,
      "inputs": [
        {
          "indexed": false,
          "internalType": "uint256",
          "name": "newValue",
          "type": "uint256"
        },
        {
          "indexed": false,
          "internalType": "uint256",
          "name": "oldValue",
          "type": "uint256"
        }
      ],
      "name": "QuestFeeChanged",
      "type": "event"
    },
    {
      "inputs": [],
      "name": "DFKAlchemist",
      "outputs": [
        {
          "internalType": "address",
          "name": "",
          "type": "address"
        }
      ],
      "stateMutability": "view",
      "type": "function"
    },
    {
      "inputs": [],
      "name": "DFKGoldToken",
      "outputs": [
        {
          "internalType": "address",
          "name": "",
          "type": "address"
        }
      ],
      "stateMutability": "view",
      "type": "function"
    },
    {
      "inputs": [],
      "name": "DFKJewelToken",
      "outputs": [
        {
          "internalType": "address",
          "name": "",
          "type": "address"
        }
      ],
      "stateMutability": "view",
      "type": "function"
    },
    {
      "inputs": [],
      "name": "DFKQuest",
      "outputs": [
        {
          "internalType": "address",
          "name": "",
          "type": "address"
        }
      ],
      "stateMutability": "view",
      "type": "function"
    },
    {
      "inputs": [],
      "name": "DFKTrainingQuest",
      "outputs": [
        {
          "internalType": "address",
          "name": "",
          "type": "address"
        }
      ],
      "stateMutability": "view",
      "type": "function"
    },
    {
      "inputs": [],
      "name": "DFKVender",
      "outputs": [
        {
          "internalType": "address",
          "name": "",
          "type": "address"
        }
      ],
      "stateMutability": "view",
      "type": "function"
    },
    {
      "inputs": [],
      "name": "acceptAdmin",
      "outputs": [],
      "stateMutability": "nonpayable",
      "type": "function"
    },
    {
      "inputs": [],
      "name": "accountFactory",
      "outputs": [
        {
          "internalType": "address",
          "name": "",
          "type": "address"
        }
      ],
      "stateMutability": "view",
      "type": "function"
    },
    {
      "inputs": [],
      "name": "admin",
      "outputs": [
        {
          "internalType": "address",
          "name": "",
          "type": "address"
        }
      ],
      "stateMutability": "view",
      "type": "function"
    },
    {
      "inputs": [
        {
          "internalType": "address[]",
          "name": "_erc20Tokens",
          "type": "address[]"
        },
        {
          "internalType": "uint256[]",
          "name": "_amounts",
          "type": "uint256[]"
        }
      ],
      "name": "batchWithdrawalERC20Tokens",
      "outputs": [],
      "stateMutability": "nonpayable",
      "type": "function"
    },
    {
      "inputs": [
        {
          "internalType": "address",
          "name": "_erc721Token",
          "type": "address"
        },
        {
          "internalType": "uint256[]",
          "name": "_tokenIds",
          "type": "uint256[]"
        }
      ],
      "name": "batchWithdrawalERC721Tokens",
      "outputs": [],
      "stateMutability": "nonpayable",
      "type": "function"
    },
    {
      "inputs": [
        {
          "internalType": "address",
          "name": "_account",
          "type": "address"
        },
        {
          "internalType": "uint256",
          "name": "_heroId",
          "type": "uint256"
        }
      ],
      "name": "cancelQuest",
      "outputs": [],
      "stateMutability": "nonpayable",
      "type": "function"
    },
    {
      "inputs": [
        {
          "internalType": "address",
          "name": "_account",
          "type": "address"
        },
        {
          "internalType": "uint256",
          "name": "_heroId",
          "type": "uint256"
        }
      ],
      "name": "cancelTrainingQuest",
      "outputs": [],
      "stateMutability": "nonpayable",
      "type": "function"
    },
    {
      "inputs": [
        {
          "internalType": "address",
          "name": "_account",
          "type": "address"
        },
        {
          "internalType": "uint256",
          "name": "_heroId",
          "type": "uint256"
        }
      ],
      "name": "completeQuest",
      "outputs": [],
      "stateMutability": "nonpayable",
      "type": "function"
    },
    {
      "inputs": [
        {
          "internalType": "address",
          "name": "_account",
          "type": "address"
        },
        {
          "internalType": "uint256",
          "name": "_heroId",
          "type": "uint256"
        }
      ],
      "name": "completeTrainingQuest",
      "outputs": [],
      "stateMutability": "nonpayable",
      "type": "function"
    },
    {
      "inputs": [
        {
          "internalType": "address",
          "name": "_account",
          "type": "address"
        },
        {
          "internalType": "address",
          "name": "_item",
          "type": "address"
        },
        {
          "internalType": "uint256",
          "name": "_heroId",
          "type": "uint256"
        }
      ],
      "name": "craftPotion",
      "outputs": [],
      "stateMutability": "nonpayable",
      "type": "function"
    },
    {
      "inputs": [
        {
          "internalType": "address",
          "name": "user",
          "type": "address"
        }
      ],
      "name": "getAccount",
      "outputs": [
        {
          "internalType": "address",
          "name": "",
          "type": "address"
        }
      ],
      "stateMutability": "view",
      "type": "function"
    },
    {
      "inputs": [],
      "name": "getOperators",
      "outputs": [
        {
          "internalType": "address[]",
          "name": "",
          "type": "address[]"
        }
      ],
      "stateMutability": "view",
      "type": "function"
    },
    {
      "inputs": [
        {
          "internalType": "address",
          "name": "user",
          "type": "address"
        }
      ],
      "name": "hasAccount",
      "outputs": [
        {
          "internalType": "bool",
          "name": "",
          "type": "bool"
        }
      ],
      "stateMutability": "view",
      "type": "function"
    },
    {
      "inputs": [],
      "name": "miningJewelFeeRate",
      "outputs": [
        {
          "internalType": "uint256",
          "name": "",
          "type": "uint256"
        }
      ],
      "stateMutability": "view",
      "type": "function"
    },
    {
      "inputs": [],
      "name": "miningJewelFeeThreshold",
      "outputs": [
        {
          "internalType": "uint256",
          "name": "",
          "type": "uint256"
        }
      ],
      "stateMutability": "view",
      "type": "function"
    },
    {
      "inputs": [],
      "name": "pendingAdmin",
      "outputs": [
        {
          "internalType": "address",
          "name": "",
          "type": "address"
        }
      ],
      "stateMutability": "view",
      "type": "function"
    },
    {
      "inputs": [],
      "name": "questFee",
      "outputs": [
        {
          "internalType": "uint256",
          "name": "",
          "type": "uint256"
        }
      ],
      "stateMutability": "view",
      "type": "function"
    },
    {
      "inputs": [],
      "name": "sellItemFeeRate",
      "outputs": [
        {
          "internalType": "uint256",
          "name": "",
          "type": "uint256"
        }
      ],
      "stateMutability": "view",
      "type": "function"
    },
    {
      "inputs": [],
      "name": "sellItemFeeThreshold",
      "outputs": [
        {
          "internalType": "uint256",
          "name": "",
          "type": "uint256"
        }
      ],
      "stateMutability": "view",
      "type": "function"
    },
    {
      "inputs": [
        {
          "internalType": "address[]",
          "name": "_items",
          "type": "address[]"
        },
        {
          "internalType": "uint256[]",
          "name": "_amounts",
          "type": "uint256[]"
        }
      ],
      "name": "sellToVender",
      "outputs": [],
      "stateMutability": "nonpayable",
      "type": "function"
    },
    {
      "inputs": [
        {
          "internalType": "uint256",
          "name": "_miningJewelFeeRate",
          "type": "uint256"
        }
      ],
      "name": "setMiningJewelFeeRate",
      "outputs": [],
      "stateMutability": "nonpayable",
      "type": "function"
    },
    {
      "inputs": [
        {
          "internalType": "uint256",
          "name": "_miningJewelFeeThreshold",
          "type": "uint256"
        }
      ],
      "name": "setMiningJewelFeeThreshold",
      "outputs": [],
      "stateMutability": "nonpayable",
      "type": "function"
    },
    {
      "inputs": [
        {
          "internalType": "address",
          "name": "_newPendingAdmin",
          "type": "address"
        }
      ],
      "name": "setPendingAdmin",
      "outputs": [],
      "stateMutability": "nonpayable",
      "type": "function"
    },
    {
      "inputs": [
        {
          "internalType": "uint256",
          "name": "_questFee",
          "type": "uint256"
        }
      ],
      "name": "setQuestFee",
      "outputs": [],
      "stateMutability": "nonpayable",
      "type": "function"
    },
    {
      "inputs": [
        {
          "internalType": "uint256",
          "name": "_sellItemFeeRate",
          "type": "uint256"
        }
      ],
      "name": "setSellItemFeeRate",
      "outputs": [],
      "stateMutability": "nonpayable",
      "type": "function"
    },
    {
      "inputs": [
        {
          "internalType": "uint256",
          "name": "_sellItemFeeThreshold",
          "type": "uint256"
        }
      ],
      "name": "setSellItemFeeThreshold",
      "outputs": [],
      "stateMutability": "nonpayable",
      "type": "function"
    },
    {
      "inputs": [
        {
          "internalType": "uint256",
          "name": "_trainingQuestFeeRate",
          "type": "uint256"
        }
      ],
      "name": "setTrainingQuestFeeRate",
      "outputs": [],
      "stateMutability": "nonpayable",
      "type": "function"
    },
    {
      "inputs": [
        {
          "internalType": "uint256",
          "name": "_trainingQuestFeeThreshold",
          "type": "uint256"
        }
      ],
      "name": "setTrainingQuestFeeThreshold",
      "outputs": [],
      "stateMutability": "nonpayable",
      "type": "function"
    },
    {
      "inputs": [
        {
          "internalType": "address",
          "name": "_account",
          "type": "address"
        },
        {
          "internalType": "uint256[]",
          "name": "_heroIds",
          "type": "uint256[]"
        },
        {
          "internalType": "address",
          "name": "_quest",
          "type": "address"
        },
        {
          "internalType": "uint8",
          "name": "_attempts",
          "type": "uint8"
        }
      ],
      "name": "startQuest",
      "outputs": [],
      "stateMutability": "nonpayable",
      "type": "function"
    },
    {
      "inputs": [
        {
          "internalType": "address",
          "name": "_account",
          "type": "address"
        },
        {
          "internalType": "uint256[]",
          "name": "_heroIds",
          "type": "uint256[]"
        },
        {
          "internalType": "address",
          "name": "_quest",
          "type": "address"
        },
        {
          "internalType": "uint8",
          "name": "_attempts",
          "type": "uint8"
        },
        {
          "components": [
            {
              "internalType": "uint256",
              "name": "uint1",
              "type": "uint256"
            },
            {
              "internalType": "uint256",
              "name": "uint2",
              "type": "uint256"
            },
            {
              "internalType": "uint256",
              "name": "uint3",
              "type": "uint256"
            },
            {
              "internalType": "uint256",
              "name": "uint4",
              "type": "uint256"
            },
            {
              "internalType": "int256",
              "name": "int1",
              "type": "int256"
            },
            {
              "internalType": "int256",
              "name": "int2",
              "type": "int256"
            },
            {
              "internalType": "string",
              "name": "string1",
              "type": "string"
            },
            {
              "internalType": "string",
              "name": "string2",
              "type": "string"
            },
            {
              "internalType": "address",
              "name": "address1",
              "type": "address"
            },
            {
              "internalType": "address",
              "name": "address2",
              "type": "address"
            },
            {
              "internalType": "address",
              "name": "address3",
              "type": "address"
            },
            {
              "internalType": "address",
              "name": "address4",
              "type": "address"
            }
          ],
          "internalType": "struct IDFKQuest.QuestData",
          "name": "_questData",
          "type": "tuple"
        }
      ],
      "name": "startQuestWithData",
      "outputs": [],
      "stateMutability": "nonpayable",
      "type": "function"
    },
    {
      "inputs": [
        {
          "internalType": "address",
          "name": "_account",
          "type": "address"
        },
        {
          "internalType": "uint256[]",
          "name": "_heroIds",
          "type": "uint256[]"
        },
        {
          "internalType": "address",
          "name": "_quest",
          "type": "address"
        },
        {
          "internalType": "uint8",
          "name": "_attempts",
          "type": "uint8"
        },
        {
          "internalType": "uint8",
          "name": "_level",
          "type": "uint8"
        }
      ],
      "name": "startTrainingQuest",
      "outputs": [],
      "stateMutability": "nonpayable",
      "type": "function"
    },
    {
      "inputs": [],
      "name": "trainingQuestFeeRate",
      "outputs": [
        {
          "internalType": "uint256",
          "name": "",
          "type": "uint256"
        }
      ],
      "stateMutability": "view",
      "type": "function"
    },
    {
      "inputs": [],
      "name": "trainingQuestFeeThreshold",
      "outputs": [
        {
          "internalType": "uint256",
          "name": "",
          "type": "uint256"
        }
      ],
      "stateMutability": "view",
      "type": "function"
    },
    {
      "inputs": [
        {
          "internalType": "address",
          "name": "user",
          "type": "address"
        }
      ],
      "name": "tryGetAccount",
      "outputs": [
        {
          "internalType": "address",
          "name": "",
          "type": "address"
        }
      ],
      "stateMutability": "view",
      "type": "function"
    },
    {
      "inputs": [
        {
          "internalType": "address",
          "name": "_operator",
          "type": "address"
        },
        {
          "internalType": "bool",
          "name": "_add",
          "type": "bool"
        }
      ],
      "name": "updateOperator",
      "outputs": [],
      "stateMutability": "nonpayable",
      "type": "function"
    },
    {
      "inputs": [
        {
          "internalType": "uint256",
          "name": "_amount",
          "type": "uint256"
        }
      ],
      "name": "withdrawalNativeToken",
      "outputs": [],
      "stateMutability": "nonpayable",
      "type": "function"
    }
  ],
  "transactionHash": "0x0ec09de8e0abf8433832fa0d417fdc93318cda6b30c2c431c5b9ebbbcf1b0616",
  "args": [
    "0x26B1029bD0bEEb31F2F5da74d2dd19fAC92b85Cc"
  ],
  "numDeployments": 2,
  "solcInputHash": "d02a33d4fcb6841c3dcdfb16e348e276",
  "bytecode": "0x60a06040523480156200001157600080fd5b5060405162002c6038038062002c608339810160408190526200003491620000d1565b600080546001600160a01b03191633908117825560408051918252602082019290925282917ff9ffabca9c8276e99321725bcb43fb076a6c66a54b7f21c4e8146d8519b417dc910160405180910390a160601b6001600160601b031916608052506701aa535d3d0c000060045560fa60058190556703782dace9d90000600655600781905562030d406008819055600991909155600a5562000103565b600060208284031215620000e457600080fd5b81516001600160a01b0381168114620000fc57600080fd5b9392505050565b60805160601c612b3762000129600039600081816103f8015261085f0152612b376000f3fe608060405234801561001057600080fd5b506004361061025d5760003560e01c8063687cd9c111610146578063c8e40fbf116100c3578063f243fbff11610087578063f243fbff14610542578063f476f58614610555578063f567a69314610570578063f851a44014610579578063f9d2fc641461058c578063fbcbc0f11461059f57600080fd5b8063c8e40fbf146104cb578063d0d822e3146104ee578063d11d2c3114610501578063eba53f7d1461051c578063f05ba4fe1461052f57600080fd5b8063916e36071161010a578063916e360714610466578063b383544714610481578063b5a143d014610494578063b6644ab5146104a7578063b8de0547146104b057600080fd5b8063687cd9c1146103f35780636d44a3b21461041a5780637a5cadd01461042d57806388fd6cbd146104405780638f3c4e5b1461045357600080fd5b80632d6b7fcb116101df5780634dd18bf5116101a35780634dd18bf51461038d578063518911bc146103a0578063618f71ab146103b35780636374e4c5146103bc5780636773ed1e146103d757806367dfa3e7146103ea57600080fd5b80632d6b7fcb146103425780632eaa60531461034b5780633760da5a1461035e5780633a6cb96e146103715780633a9a57721461037a57600080fd5b80631cc1b0e1116102265780631cc1b0e1146102e15780631f77a06a146102f4578063267822471461030757806327a099d81461031a5780632c3f00c91461032f57600080fd5b8062c49388146102625780630e18b6811461029a5780630e197865146102a45780630f6672e5146102b7578063176285aa146102ca575b600080fd5b61027d7372cb10c6bfa5624dd07ef608027e366bd690048f81565b6040516001600160a01b0390911681526020015b60405180910390f35b6102a26105b2565b005b6102a26102b236600461265a565b6106d2565b6102a26102c5366004612515565b61073a565b6102d360075481565b604051908152602001610291565b61027d6102ef36600461225d565b61083d565b6102a2610302366004612515565b6108e1565b60015461027d906001600160a01b031681565b61032261093f565b604051610291919061272d565b6102a261033d36600461244f565b6109ef565b6102d360085481565b6102a26103593660046122d8565b610b06565b6102a261036c366004612541565b610d1a565b6102d360065481565b6102a261038836600461265a565b610f3a565b6102a261039b36600461225d565b610f69565b6102a26103ae36600461265a565b611075565b6102d3600a5481565b61027d73aa9a289ce0565e4d6548e63a441e7c084e6b52f681565b6102a26103e5366004612515565b6110a4565b6102d360045481565b61027d7f000000000000000000000000000000000000000000000000000000000000000081565b6102a26104283660046124d7565b6112f7565b6102a261043b36600461265a565b61133d565b6102a261044e3660046123a6565b6113d0565b6102a261046136600461265a565b611488565b61027d733a4edcf3312f44ef027acfd8c21382a5259936e781565b6102a261048f366004612541565b6114b7565b6102a26104a236600461265a565b611959565b6102d360095481565b61027d735100bd31b822371108a0f63dcfb6594b9919eaf481565b6104de6104d936600461225d565b611988565b6040519015158152602001610291565b6102a26104fc36600461265a565b6119a5565b61027d7338e76972bd173901b5e5e43ba5cb464293b80c3181565b6102a261052a366004612515565b6119d4565b6102a261053d36600461265a565b611c21565b6102a261055036600461232d565b611c50565b61027d73e53bf78f8b99b6d356f93f41afb9951168cca2c681565b6102d360055481565b60005461027d906001600160a01b031681565b6102a261059a366004612297565b611d5c565b61027d6105ad36600461225d565b611e5f565b6001546001600160a01b0316331480156105cb57503315155b61061c5760405162461bcd60e51b815260206004820152601a60248201527f44464b4561726e3a206e6f742070656e64696e672061646d696e00000000000060448201526064015b60405180910390fd5b60008054600180546001600160a01b038082166001600160a01b031980861682179096559490911690915560408051848152919092166020820181905292917ff9ffabca9c8276e99321725bcb43fb076a6c66a54b7f21c4e8146d8519b417dc910160405180910390a1600154604080516001600160a01b03928316815291831660208301527fca4f2f25d0898edd99413412fb94012f9e54ec8142f9b093e7720646a95b16a991015b60405180910390a15050565b6000546001600160a01b031633146106fc5760405162461bcd60e51b81526004016106139061291d565b600480549082905560408051838152602081018390527f95ed68237a6a1d4200ec409bb080ba6295f2a426346b3d475f4bf3a412cc30be91016106c6565b610745600233611eb9565b6107615760405162461bcd60e51b815260040161061390612949565b816001600160a01b031663a0b5ffb073aa9a289ce0565e4d6548e63a441e7c084e6b52f68360405160240161079891815260200190565b60408051601f198184030181529181526020820180516001600160e01b031663fe90ff7d60e01b1790525160e084901b6001600160e01b03191681526107e29291906004016126eb565b600060405180830381600087803b1580156107fc57600080fd5b505af1158015610810573d6000803e3d6000fd5b505050506040513d6000823e601f3d908101601f1916820160405261083891908101906125ad565b505050565b604051632f2e037160e11b81526001600160a01b0382811660048301526000917f000000000000000000000000000000000000000000000000000000000000000090911690635e5c06e29060240160206040518083038186803b1580156108a357600080fd5b505afa1580156108b7573d6000803e3d6000fd5b505050506040513d601f19601f820116820180604052508101906108db919061227a565b92915050565b6108ec600233611eb9565b6109085760405162461bcd60e51b815260040161061390612949565b816001600160a01b031663a0b5ffb0735100bd31b822371108a0f63dcfb6594b9919eaf48360405160240161079891815260200190565b6060600061094d6002611ede565b905060008167ffffffffffffffff81111561096a5761096a612ad6565b604051908082528060200260200182016040528015610993578160200160208202803683370190505b50905060005b828110156109e8576109ac600282611ee8565b8282815181106109be576109be612ac0565b6001600160a01b0390921660209283029190910190910152806109e081612a79565b915050610999565b5092915050565b6109fa600233611eb9565b610a165760405162461bcd60e51b815260040161061390612949565b610a208685611ef4565b856001600160a01b031663a0b5ffb073aa9a289ce0565e4d6548e63a441e7c084e6b52f68787878787604051602401610a5d9594939291906128df565b60408051601f198184030181529181526020820180516001600160e01b0316638a2da17b60e01b1790525160e084901b6001600160e01b0319168152610aa79291906004016126eb565b600060405180830381600087803b158015610ac157600080fd5b505af1158015610ad5573d6000803e3d6000fd5b505050506040513d6000823e601f3d908101601f19168201604052610afd91908101906125ad565b50505050505050565b6000610b1133611e5f565b905060005b82811015610d13576000856001600160a01b0316636352211e868685818110610b4157610b41612ac0565b905060200201356040518263ffffffff1660e01b8152600401610b6691815260200190565b60206040518083038186803b158015610b7e57600080fd5b505afa158015610b92573d6000803e3d6000fd5b505050506040513d601f19601f82011682018060405250810190610bb6919061227a565b9050826001600160a01b0316816001600160a01b031614610c0e5760405162461bcd60e51b8152602060048201526012602482015271222325a2b0b9371d103737ba1037bbb732b960711b6044820152606401610613565b826001600160a01b031663a0b5ffb0878533898988818110610c3257610c32612ac0565b6040516001600160a01b0395861660248201529490931660448501525060209091020135606482015260840160408051601f198184030181529181526020820180516001600160e01b0316632142170760e11b1790525160e084901b6001600160e01b0319168152610ca89291906004016126eb565b600060405180830381600087803b158015610cc257600080fd5b505af1158015610cd6573d6000803e3d6000fd5b505050506040513d6000823e601f3d908101601f19168201604052610cfe91908101906125ad565b50508080610d0b90612a79565b915050610b16565b5050505050565b6000610d2533611e5f565b905060005b84811015610f32576000868683818110610d4657610d46612ac0565b9050602002016020810190610d5b919061225d565b6040516370a0823160e01b81526001600160a01b03858116600483015291909116906370a082319060240160206040518083038186803b158015610d9e57600080fd5b505afa158015610db2573d6000803e3d6000fd5b505050506040513d601f19601f82011682018060405250810190610dd69190612673565b905080858584818110610deb57610deb612ac0565b905060200201351115610e105760405162461bcd60e51b815260040161061390612978565b826001600160a01b031663a0b5ffb0888885818110610e3157610e31612ac0565b9050602002016020810190610e46919061225d565b33888887818110610e5957610e59612ac0565b6040516001600160a01b039094166024850152602002919091013560448301525060640160408051601f198184030181529181526020820180516001600160e01b031663a9059cbb60e01b1790525160e084901b6001600160e01b0319168152610ec79291906004016126eb565b600060405180830381600087803b158015610ee157600080fd5b505af1158015610ef5573d6000803e3d6000fd5b505050506040513d6000823e601f3d908101601f19168201604052610f1d91908101906125ad565b50508080610f2a90612a79565b915050610d2a565b505050505050565b6000546001600160a01b03163314610f645760405162461bcd60e51b81526004016106139061291d565b600555565b6000546001600160a01b03163314610f935760405162461bcd60e51b81526004016106139061291d565b6000546001600160a01b03828116911614801590610fb957506001600160a01b03811615155b6110055760405162461bcd60e51b815260206004820152601860248201527f44464b4561726e3a20696e76616c6964206164647265737300000000000000006044820152606401610613565b6001546001600160a01b0382811691161461107257600180546001600160a01b038381166001600160a01b03198316811790935560408051938452911660208301819052917fca4f2f25d0898edd99413412fb94012f9e54ec8142f9b093e7720646a95b16a991016106c6565b50565b6000546001600160a01b0316331461109f5760405162461bcd60e51b81526004016106139061291d565b600755565b6110af600233611eb9565b6110cb5760405162461bcd60e51b815260040161061390612949565b6040516370a0823160e01b81526001600160a01b0383166004820152600090733a4edcf3312f44ef027acfd8c21382a5259936e7906370a082319060240160206040518083038186803b15801561112157600080fd5b505afa158015611135573d6000803e3d6000fd5b505050506040513d601f19601f820116820180604052508101906111599190612673565b9050826001600160a01b031663a0b5ffb073aa9a289ce0565e4d6548e63a441e7c084e6b52f68460405160240161119291815260200190565b60408051601f198184030181529181526020820180516001600160e01b031663528be0a960e01b1790525160e084901b6001600160e01b03191681526111dc9291906004016126eb565b600060405180830381600087803b1580156111f657600080fd5b505af115801561120a573d6000803e3d6000fd5b505050506040513d6000823e601f3d908101601f1916820160405261123291908101906125ad565b506040516370a0823160e01b81526001600160a01b0384166004820152600090733a4edcf3312f44ef027acfd8c21382a5259936e7906370a082319060240160206040518083038186803b15801561128957600080fd5b505afa15801561129d573d6000803e3d6000fd5b505050506040513d601f19601f820116820180604052508101906112c19190612673565b90506112f184733a4edcf3312f44ef027acfd8c21382a5259936e76112e68585612a36565b600854600754611fc2565b50505050565b6000546001600160a01b031633146113215760405162461bcd60e51b81526004016106139061291d565b80156113325761083860028361205a565b61083860028361206f565b600061134833611e5f565b9050806001600160a01b0316318211156113745760405162461bcd60e51b815260040161061390612978565b6040516324a084df60e01b8152336004820152602481018390526001600160a01b038216906324a084df90604401600060405180830381600087803b1580156113bc57600080fd5b505af1158015610f32573d6000803e3d6000fd5b6113db600233611eb9565b6113f75760405162461bcd60e51b815260040161061390612949565b6114018685611ef4565b856001600160a01b031663a0b5ffb0735100bd31b822371108a0f63dcfb6594b9919eaf4878787878760405160240161143e9594939291906127b2565b60408051601f198184030181529181526020820180516001600160e01b031663f51333f560e01b1790525160e084901b6001600160e01b0319168152610aa79291906004016126eb565b6000546001600160a01b031633146114b25760405162461bcd60e51b81526004016106139061291d565b600955565b60006114c233611e5f565b6040516370a0823160e01b81526001600160a01b0382166004820152909150600090733a4edcf3312f44ef027acfd8c21382a5259936e7906370a082319060240160206040518083038186803b15801561151b57600080fd5b505afa15801561152f573d6000803e3d6000fd5b505050506040513d601f19601f820116820180604052508101906115539190612673565b905060005b8581101561189a57600087878381811061157457611574612ac0565b9050602002016020810190611589919061225d565b6040516370a0823160e01b81526001600160a01b03868116600483015291909116906370a082319060240160206040518083038186803b1580156115cc57600080fd5b505afa1580156115e0573d6000803e3d6000fd5b505050506040513d601f19601f820116820180604052508101906116049190612673565b90508086868481811061161957611619612ac0565b90506020020135111561163e5760405162461bcd60e51b815260040161061390612978565b836001600160a01b031663a0b5ffb089898581811061165f5761165f612ac0565b9050602002016020810190611674919061225d565b73e53bf78f8b99b6d356f93f41afb9951168cca2c689898781811061169b5761169b612ac0565b6040516001600160a01b039094166024850152602002919091013560448301525060640160408051601f198184030181529181526020820180516001600160e01b031663095ea7b360e01b1790525160e084901b6001600160e01b03191681526117099291906004016126eb565b600060405180830381600087803b15801561172357600080fd5b505af1158015611737573d6000803e3d6000fd5b505050506040513d6000823e601f3d908101601f1916820160405261175f91908101906125ad565b506001600160a01b03841663a0b5ffb073e53bf78f8b99b6d356f93f41afb9951168cca2c66304b62f0d60e11b8b8b8781811061179e5761179e612ac0565b90506020020160208101906117b3919061225d565b8a8a888181106117c5576117c5612ac0565b6040516001600160a01b039094166024850152602002919091013560448301525060640160408051601f198184030181529181526020820180516001600160e01b03166001600160e01b03199485161790525160e085901b909216825261182f92916004016126eb565b600060405180830381600087803b15801561184957600080fd5b505af115801561185d573d6000803e3d6000fd5b505050506040513d6000823e601f3d908101601f1916820160405261188591908101906125ad565b5050808061189290612a79565b915050611558565b506040516370a0823160e01b81526001600160a01b0383166004820152600090733a4edcf3312f44ef027acfd8c21382a5259936e7906370a082319060240160206040518083038186803b1580156118f157600080fd5b505afa158015611905573d6000803e3d6000fd5b505050506040513d601f19601f820116820180604052508101906119299190612673565b9050610afd83733a4edcf3312f44ef027acfd8c21382a5259936e761194e8585612a36565b600a54600954611fc2565b6000546001600160a01b031633146119835760405162461bcd60e51b81526004016106139061291d565b600655565b6000806119948361083d565b6001600160a01b0316141592915050565b6000546001600160a01b031633146119cf5760405162461bcd60e51b81526004016106139061291d565b600855565b6119df600233611eb9565b6119fb5760405162461bcd60e51b815260040161061390612949565b6040516370a0823160e01b81526001600160a01b03831660048201526000907372cb10c6bfa5624dd07ef608027e366bd690048f906370a082319060240160206040518083038186803b158015611a5157600080fd5b505afa158015611a65573d6000803e3d6000fd5b505050506040513d601f19601f82011682018060405250810190611a899190612673565b9050826001600160a01b031663a0b5ffb0735100bd31b822371108a0f63dcfb6594b9919eaf484604051602401611ac291815260200190565b60408051601f198184030181529181526020820180516001600160e01b031663528be0a960e01b1790525160e084901b6001600160e01b0319168152611b0c9291906004016126eb565b600060405180830381600087803b158015611b2657600080fd5b505af1158015611b3a573d6000803e3d6000fd5b505050506040513d6000823e601f3d908101601f19168201604052611b6291908101906125ad565b506040516370a0823160e01b81526001600160a01b03841660048201526000907372cb10c6bfa5624dd07ef608027e366bd690048f906370a082319060240160206040518083038186803b158015611bb957600080fd5b505afa158015611bcd573d6000803e3d6000fd5b505050506040513d601f19601f82011682018060405250810190611bf19190612673565b90506112f1847372cb10c6bfa5624dd07ef608027e366bd690048f611c168585612a36565b600654600554611fc2565b6000546001600160a01b03163314611c4b5760405162461bcd60e51b81526004016106139061291d565b600a55565b611c5b600233611eb9565b611c775760405162461bcd60e51b815260040161061390612949565b611c818584611ef4565b846001600160a01b031663a0b5ffb0735100bd31b822371108a0f63dcfb6594b9919eaf486868686604051602401611cbc949392919061277a565b60408051601f198184030181529181526020820180516001600160e01b031663c855dea360e01b1790525160e084901b6001600160e01b0319168152611d069291906004016126eb565b600060405180830381600087803b158015611d2057600080fd5b505af1158015611d34573d6000803e3d6000fd5b505050506040513d6000823e601f3d908101601f19168201604052610f3291908101906125ad565b611d67600233611eb9565b611d835760405162461bcd60e51b815260040161061390612949565b6040516001600160a01b0383811660248301526044820183905284169063a0b5ffb0907338e76972bd173901b5e5e43ba5cb464293b80c319060640160408051601f198184030181529181526020820180516001600160e01b031663041bd1b960e21b1790525160e084901b6001600160e01b0319168152611e099291906004016126eb565b600060405180830381600087803b158015611e2357600080fd5b505af1158015611e37573d6000803e3d6000fd5b505050506040513d6000823e601f3d908101601f191682016040526112f191908101906125ad565b600080611e6b8361083d565b90506001600160a01b0381166108db5760405162461bcd60e51b8152602060048201526013602482015272111192d1585c9b8e881b9bc81858d8dbdd5b9d606a1b6044820152606401610613565b6001600160a01b038116600090815260018301602052604081205415155b9392505050565b60006108db825490565b6000611ed78383612084565b600060045482611f049190612a17565b905080836001600160a01b0316311015611f605760405162461bcd60e51b815260206004820152601e60248201527f4175746f51756573743a20696e737566666963656e742062616c616e636500006044820152606401610613565b6000546040516324a084df60e01b81526001600160a01b03918216600482015260248101839052908416906324a084df90604401600060405180830381600087803b158015611fae57600080fd5b505af1158015610afd573d6000803e3d6000fd5b818310610d13576000612710611fd88386612a17565b611fe291906129f5565b6000546040516001600160a01b0391821660248201526044810183905291925087169063a0b5ffb090879060640160408051601f198184030181529181526020820180516001600160e01b031663a9059cbb60e01b1790525160e084901b6001600160e01b0319168152610aa79291906004016126eb565b6000611ed7836001600160a01b0384166120ae565b6000611ed7836001600160a01b0384166120fd565b600082600001828154811061209b5761209b612ac0565b9060005260206000200154905092915050565b60008181526001830160205260408120546120f5575081546001818101845560008481526020808220909301849055845484825282860190935260409020919091556108db565b5060006108db565b600081815260018301602052604081205480156121e6576000612121600183612a36565b855490915060009061213590600190612a36565b905081811461219a57600086600001828154811061215557612155612ac0565b906000526020600020015490508087600001848154811061217857612178612ac0565b6000918252602080832090910192909255918252600188019052604090208390555b85548690806121ab576121ab612aaa565b6001900381819060005260206000200160009055905585600101600086815260200190815260200160002060009055600193505050506108db565b60009150506108db565b80356121fb81612aec565b919050565b60008083601f84011261221257600080fd5b50813567ffffffffffffffff81111561222a57600080fd5b6020830191508360208260051b850101111561224557600080fd5b9250929050565b803560ff811681146121fb57600080fd5b60006020828403121561226f57600080fd5b8135611ed781612aec565b60006020828403121561228c57600080fd5b8151611ed781612aec565b6000806000606084860312156122ac57600080fd5b83356122b781612aec565b925060208401356122c781612aec565b929592945050506040919091013590565b6000806000604084860312156122ed57600080fd5b83356122f881612aec565b9250602084013567ffffffffffffffff81111561231457600080fd5b61232086828701612200565b9497909650939450505050565b60008060008060006080868803121561234557600080fd5b853561235081612aec565b9450602086013567ffffffffffffffff81111561236c57600080fd5b61237888828901612200565b909550935050604086013561238c81612aec565b915061239a6060870161224c565b90509295509295909350565b60008060008060008060a087890312156123bf57600080fd5b86356123ca81612aec565b9550602087013567ffffffffffffffff808211156123e757600080fd5b6123f38a838b01612200565b90975095506040890135915061240882612aec565b81945061241760608a0161224c565b9350608089013591508082111561242d57600080fd5b508701610180818a03121561244157600080fd5b809150509295509295509295565b60008060008060008060a0878903121561246857600080fd5b863561247381612aec565b9550602087013567ffffffffffffffff81111561248f57600080fd5b61249b89828a01612200565b90965094505060408701356124af81612aec565b92506124bd6060880161224c565b91506124cb6080880161224c565b90509295509295509295565b600080604083850312156124ea57600080fd5b82356124f581612aec565b91506020830135801515811461250a57600080fd5b809150509250929050565b6000806040838503121561252857600080fd5b823561253381612aec565b946020939093013593505050565b6000806000806040858703121561255757600080fd5b843567ffffffffffffffff8082111561256f57600080fd5b61257b88838901612200565b9096509450602087013591508082111561259457600080fd5b506125a187828801612200565b95989497509550505050565b6000602082840312156125bf57600080fd5b815167ffffffffffffffff808211156125d757600080fd5b818401915084601f8301126125eb57600080fd5b8151818111156125fd576125fd612ad6565b604051601f8201601f19908116603f0116810190838211818310171561262557612625612ad6565b8160405282815287602084870101111561263e57600080fd5b61264f836020830160208801612a4d565b979650505050505050565b60006020828403121561266c57600080fd5b5035919050565b60006020828403121561268557600080fd5b5051919050565b81835260006001600160fb1b038311156126a557600080fd5b8260051b8083602087013760009401602001938452509192915050565b81835281816020850137506000828201602090810191909152601f909101601f19169091010190565b60018060a01b03831681526040602082015260008251806040840152612718816060850160208701612a4d565b601f01601f1916919091016060019392505050565b6020808252825182820181905260009190848201906040850190845b8181101561276e5783516001600160a01b031683529284019291840191600101612749565b50909695505050505050565b60608152600061278e60608301868861268c565b6001600160a01b039490941660208301525060ff9190911660409091015292915050565b6080815260006127c660808301878961268c565b60018060a01b038616602084015260ff851660408401528281036060840152610180843582526020850135602083015260408501356040830152606085013560608301526080850135608083015260a085013560a083015261282b60c08601866129af565b8260c085015261283e83850182846126c2565b9250505061284f60e08601866129af565b83830360e08501526128628382846126c2565b925050506101006128748187016121f0565b6001600160a01b03169083015261012061288f8682016121f0565b6001600160a01b0316908301526101406128aa8682016121f0565b6001600160a01b0316908301526101606128c58682016121f0565b6001600160a01b0316920191909152979650505050505050565b6080815260006128f360808301878961268c565b6001600160a01b039590951660208301525060ff9283166040820152911660609091015292915050565b602080825260129082015271222325a2b0b9371d103737ba1030b236b4b760711b604082015260600190565b602080825260159082015274222325a2b0b9371d103737ba1037b832b930ba37b960591b604082015260600190565b6020808252601d908201527f44464b4561726e3a20696e73756666696369656e742062616c616e6365000000604082015260600190565b6000808335601e198436030181126129c657600080fd5b830160208101925035905067ffffffffffffffff8111156129e657600080fd5b80360383131561224557600080fd5b600082612a1257634e487b7160e01b600052601260045260246000fd5b500490565b6000816000190483118215151615612a3157612a31612a94565b500290565b600082821015612a4857612a48612a94565b500390565b60005b83811015612a68578181015183820152602001612a50565b838111156112f15750506000910152565b6000600019821415612a8d57612a8d612a94565b5060010190565b634e487b7160e01b600052601160045260246000fd5b634e487b7160e01b600052603160045260246000fd5b634e487b7160e01b600052603260045260246000fd5b634e487b7160e01b600052604160045260246000fd5b6001600160a01b038116811461107257600080fdfea26469706673582212207b2f8acefa9da509333d684829ade241390134f2ea68b37cb031bb2688fbef3e64736f6c63430008070033",
  "devdoc": {
    "kind": "dev",
    "methods": {},
    "version": 1
  },
  "userdoc": {
    "kind": "user",
    "methods": {},
    "version": 1
  },
  "storageLayout": {
    "storage": [
      {
        "astId": 8108,
        "contract": "contracts/AutoQuest.sol:AutoQuest",
        "label": "admin",
        "offset": 0,
        "slot": "0",
        "type": "t_address"
      },
      {
        "astId": 8110,
        "contract": "contracts/AutoQuest.sol:AutoQuest",
        "label": "pendingAdmin",
        "offset": 0,
        "slot": "1",
        "type": "t_address"
      },
      {
        "astId": 7394,
        "contract": "contracts/AutoQuest.sol:AutoQuest",
        "label": "operators",
        "offset": 0,
        "slot": "2",
        "type": "t_struct(AddressSet)5913_storage"
      },
      {
        "astId": 7396,
        "contract": "contracts/AutoQuest.sol:AutoQuest",
        "label": "questFee",
        "offset": 0,
        "slot": "4",
        "type": "t_uint256"
      },
      {
        "astId": 7398,
        "contract": "contracts/AutoQuest.sol:AutoQuest",
        "label": "miningJewelFeeRate",
        "offset": 0,
        "slot": "5",
        "type": "t_uint256"
      },
      {
        "astId": 7400,
        "contract": "contracts/AutoQuest.sol:AutoQuest",
        "label": "miningJewelFeeThreshold",
        "offset": 0,
        "slot": "6",
        "type": "t_uint256"
      },
      {
        "astId": 7402,
        "contract": "contracts/AutoQuest.sol:AutoQuest",
        "label": "trainingQuestFeeRate",
        "offset": 0,
        "slot": "7",
        "type": "t_uint256"
      },
      {
        "astId": 7404,
        "contract": "contracts/AutoQuest.sol:AutoQuest",
        "label": "trainingQuestFeeThreshold",
        "offset": 0,
        "slot": "8",
        "type": "t_uint256"
      },
      {
        "astId": 7406,
        "contract": "contracts/AutoQuest.sol:AutoQuest",
        "label": "sellItemFeeRate",
        "offset": 0,
        "slot": "9",
        "type": "t_uint256"
      },
      {
        "astId": 7408,
        "contract": "contracts/AutoQuest.sol:AutoQuest",
        "label": "sellItemFeeThreshold",
        "offset": 0,
        "slot": "10",
        "type": "t_uint256"
      }
    ],
    "types": {
      "t_address": {
        "encoding": "inplace",
        "label": "address",
        "numberOfBytes": "20"
      },
      "t_array(t_bytes32)dyn_storage": {
        "base": "t_bytes32",
        "encoding": "dynamic_array",
        "label": "bytes32[]",
        "numberOfBytes": "32"
      },
      "t_bytes32": {
        "encoding": "inplace",
        "label": "bytes32",
        "numberOfBytes": "32"
      },
      "t_mapping(t_bytes32,t_uint256)": {
        "encoding": "mapping",
        "key": "t_bytes32",
        "label": "mapping(bytes32 => uint256)",
        "numberOfBytes": "32",
        "value": "t_uint256"
      },
      "t_struct(AddressSet)5913_storage": {
        "encoding": "inplace",
        "label": "struct EnumerableSet.AddressSet",
        "members": [
          {
            "astId": 5912,
            "contract": "contracts/AutoQuest.sol:AutoQuest",
            "label": "_inner",
            "offset": 0,
            "slot": "0",
            "type": "t_struct(Set)5612_storage"
          }
        ],
        "numberOfBytes": "64"
      },
      "t_struct(Set)5612_storage": {
        "encoding": "inplace",
        "label": "struct EnumerableSet.Set",
        "members": [
          {
            "astId": 5607,
            "contract": "contracts/AutoQuest.sol:AutoQuest",
            "label": "_values",
            "offset": 0,
            "slot": "0",
            "type": "t_array(t_bytes32)dyn_storage"
          },
          {
            "astId": 5611,
            "contract": "contracts/AutoQuest.sol:AutoQuest",
            "label": "_indexes",
            "offset": 0,
            "slot": "1",
            "type": "t_mapping(t_bytes32,t_uint256)"
          }
        ],
        "numberOfBytes": "64"
      },
      "t_uint256": {
        "encoding": "inplace",
        "label": "uint256",
        "numberOfBytes": "32"
      }
    }
  }
}