{
  "address": "0x37F69DB40F5a306fBFB9E4edC8b6b92c86236db7",
  "abi": [
    {
      "inputs": [
        {
          "internalType": "address",
          "name": "_money",
          "type": "address"
        },
        {
          "internalType": "uint256",
          "name": "_commission",
          "type": "uint256"
        }
      ],
      "stateMutability": "nonpayable",
      "type": "constructor"
    },
    {
      "anonymous": false,
      "inputs": [
        {
          "indexed": true,
          "internalType": "uint256",
          "name": "id",
          "type": "uint256"
        }
      ],
      "name": "Cancelled",
      "type": "event"
    },
    {
      "anonymous": false,
      "inputs": [
        {
          "indexed": false,
          "internalType": "uint256",
          "name": "newCommission",
          "type": "uint256"
        },
        {
          "indexed": false,
          "internalType": "uint256",
          "name": "oldCommission",
          "type": "uint256"
        }
      ],
      "name": "CommissionChanged",
      "type": "event"
    },
    {
      "anonymous": false,
      "inputs": [
        {
          "indexed": true,
          "internalType": "uint256",
          "name": "id",
          "type": "uint256"
        },
        {
          "indexed": false,
          "internalType": "address",
          "name": "bidder",
          "type": "address"
        }
      ],
      "name": "Completed",
      "type": "event"
    },
    {
      "anonymous": false,
      "inputs": [
        {
          "indexed": true,
          "internalType": "uint256",
          "name": "id",
          "type": "uint256"
        },
        {
          "indexed": true,
          "internalType": "address",
          "name": "creator",
          "type": "address"
        }
      ],
      "name": "Created",
      "type": "event"
    },
    {
      "anonymous": false,
      "inputs": [
        {
          "indexed": true,
          "internalType": "address",
          "name": "previousOwner",
          "type": "address"
        },
        {
          "indexed": true,
          "internalType": "address",
          "name": "newOwner",
          "type": "address"
        }
      ],
      "name": "OwnershipTransferred",
      "type": "event"
    },
    {
      "anonymous": false,
      "inputs": [
        {
          "indexed": false,
          "internalType": "address",
          "name": "account",
          "type": "address"
        }
      ],
      "name": "Paused",
      "type": "event"
    },
    {
      "anonymous": false,
      "inputs": [
        {
          "indexed": true,
          "internalType": "uint256",
          "name": "id",
          "type": "uint256"
        }
      ],
      "name": "PriceChanged",
      "type": "event"
    },
    {
      "anonymous": false,
      "inputs": [
        {
          "indexed": false,
          "internalType": "address",
          "name": "account",
          "type": "address"
        }
      ],
      "name": "Unpaused",
      "type": "event"
    },
    {
      "inputs": [
        {
          "internalType": "uint256",
          "name": "_id",
          "type": "uint256"
        }
      ],
      "name": "bid",
      "outputs": [],
      "stateMutability": "nonpayable",
      "type": "function"
    },
    {
      "inputs": [
        {
          "internalType": "uint256",
          "name": "_id",
          "type": "uint256"
        }
      ],
      "name": "cancel",
      "outputs": [],
      "stateMutability": "nonpayable",
      "type": "function"
    },
    {
      "inputs": [
        {
          "internalType": "uint256",
          "name": "_id",
          "type": "uint256"
        },
        {
          "internalType": "uint256",
          "name": "_price",
          "type": "uint256"
        }
      ],
      "name": "changePrice",
      "outputs": [],
      "stateMutability": "nonpayable",
      "type": "function"
    },
    {
      "inputs": [],
      "name": "commission",
      "outputs": [
        {
          "internalType": "uint256",
          "name": "",
          "type": "uint256"
        }
      ],
      "stateMutability": "view",
      "type": "function"
    },
    {
      "inputs": [
        {
          "components": [
            {
              "internalType": "enum ItemType",
              "name": "itemType",
              "type": "uint8"
            },
            {
              "internalType": "address",
              "name": "addr",
              "type": "address"
            },
            {
              "internalType": "uint256[]",
              "name": "amounts",
              "type": "uint256[]"
            },
            {
              "internalType": "uint256[]",
              "name": "ids",
              "type": "uint256[]"
            }
          ],
          "internalType": "struct Item",
          "name": "_item",
          "type": "tuple"
        },
        {
          "internalType": "uint256",
          "name": "_price",
          "type": "uint256"
        }
      ],
      "name": "create",
      "outputs": [
        {
          "internalType": "uint256",
          "name": "id",
          "type": "uint256"
        }
      ],
      "stateMutability": "nonpayable",
      "type": "function"
    },
    {
      "inputs": [],
      "name": "money",
      "outputs": [
        {
          "internalType": "contract IERC20",
          "name": "",
          "type": "address"
        }
      ],
      "stateMutability": "view",
      "type": "function"
    },
    {
      "inputs": [],
      "name": "numOffers",
      "outputs": [
        {
          "internalType": "uint256",
          "name": "",
          "type": "uint256"
        }
      ],
      "stateMutability": "view",
      "type": "function"
    },
    {
      "inputs": [
        {
          "internalType": "uint256",
          "name": "",
          "type": "uint256"
        }
      ],
      "name": "offers",
      "outputs": [
        {
          "internalType": "address",
          "name": "creator",
          "type": "address"
        },
        {
          "internalType": "address",
          "name": "bidder",
          "type": "address"
        },
        {
          "components": [
            {
              "internalType": "enum ItemType",
              "name": "itemType",
              "type": "uint8"
            },
            {
              "internalType": "address",
              "name": "addr",
              "type": "address"
            },
            {
              "internalType": "uint256[]",
              "name": "amounts",
              "type": "uint256[]"
            },
            {
              "internalType": "uint256[]",
              "name": "ids",
              "type": "uint256[]"
            }
          ],
          "internalType": "struct Item",
          "name": "item",
          "type": "tuple"
        },
        {
          "internalType": "uint256",
          "name": "price",
          "type": "uint256"
        },
        {
          "internalType": "uint256",
          "name": "commission",
          "type": "uint256"
        },
        {
          "internalType": "enum FixedPriceMarket.OfferStatus",
          "name": "status",
          "type": "uint8"
        }
      ],
      "stateMutability": "view",
      "type": "function"
    },
    {
      "inputs": [
        {
          "internalType": "address",
          "name": "",
          "type": "address"
        },
        {
          "internalType": "address",
          "name": "",
          "type": "address"
        },
        {
          "internalType": "uint256[]",
          "name": "",
          "type": "uint256[]"
        },
        {
          "internalType": "uint256[]",
          "name": "",
          "type": "uint256[]"
        },
        {
          "internalType": "bytes",
          "name": "",
          "type": "bytes"
        }
      ],
      "name": "onERC1155BatchReceived",
      "outputs": [
        {
          "internalType": "bytes4",
          "name": "",
          "type": "bytes4"
        }
      ],
      "stateMutability": "nonpayable",
      "type": "function"
    },
    {
      "inputs": [
        {
          "internalType": "address",
          "name": "",
          "type": "address"
        },
        {
          "internalType": "address",
          "name": "",
          "type": "address"
        },
        {
          "internalType": "uint256",
          "name": "",
          "type": "uint256"
        },
        {
          "internalType": "uint256",
          "name": "",
          "type": "uint256"
        },
        {
          "internalType": "bytes",
          "name": "",
          "type": "bytes"
        }
      ],
      "name": "onERC1155Received",
      "outputs": [
        {
          "internalType": "bytes4",
          "name": "",
          "type": "bytes4"
        }
      ],
      "stateMutability": "nonpayable",
      "type": "function"
    },
    {
      "inputs": [
        {
          "internalType": "address",
          "name": "",
          "type": "address"
        },
        {
          "internalType": "address",
          "name": "",
          "type": "address"
        },
        {
          "internalType": "uint256",
          "name": "",
          "type": "uint256"
        },
        {
          "internalType": "bytes",
          "name": "",
          "type": "bytes"
        }
      ],
      "name": "onERC721Received",
      "outputs": [
        {
          "internalType": "bytes4",
          "name": "",
          "type": "bytes4"
        }
      ],
      "stateMutability": "nonpayable",
      "type": "function"
    },
    {
      "inputs": [],
      "name": "owner",
      "outputs": [
        {
          "internalType": "address",
          "name": "",
          "type": "address"
        }
      ],
      "stateMutability": "view",
      "type": "function"
    },
    {
      "inputs": [],
      "name": "pause",
      "outputs": [],
      "stateMutability": "nonpayable",
      "type": "function"
    },
    {
      "inputs": [],
      "name": "paused",
      "outputs": [
        {
          "internalType": "bool",
          "name": "",
          "type": "bool"
        }
      ],
      "stateMutability": "view",
      "type": "function"
    },
    {
      "inputs": [],
      "name": "renounceOwnership",
      "outputs": [],
      "stateMutability": "nonpayable",
      "type": "function"
    },
    {
      "inputs": [
        {
          "internalType": "uint256",
          "name": "_commission",
          "type": "uint256"
        }
      ],
      "name": "setComission",
      "outputs": [],
      "stateMutability": "nonpayable",
      "type": "function"
    },
    {
      "inputs": [
        {
          "internalType": "bytes4",
          "name": "interfaceId",
          "type": "bytes4"
        }
      ],
      "name": "supportsInterface",
      "outputs": [
        {
          "internalType": "bool",
          "name": "",
          "type": "bool"
        }
      ],
      "stateMutability": "view",
      "type": "function"
    },
    {
      "inputs": [
        {
          "internalType": "address",
          "name": "newOwner",
          "type": "address"
        }
      ],
      "name": "transferOwnership",
      "outputs": [],
      "stateMutability": "nonpayable",
      "type": "function"
    },
    {
      "inputs": [],
      "name": "unpause",
      "outputs": [],
      "stateMutability": "nonpayable",
      "type": "function"
    }
  ],
  "transactionHash": "0x546fedf8ab231254b98e8c151f4374190b9e4e2143283ff40762ce6daa1cfc8a",
  "args": [
    "0x72Cb10C6bfA5624dD07Ef608027E366bd690048F",
    250
  ],
  "numDeployments": 5,
  "solcInputHash": "4dab09d7342c9fed59147d6d2814b8b3",
  "bytecode": "0x60a06040523480156200001157600080fd5b5060405162002244380380620022448339810160408190526200003491620000bd565b818162000041336200006d565b6000805460ff60a01b1916905560609190911b6001600160601b03191660805260015550620000f99050565b600080546001600160a01b038381166001600160a01b0319831681178455604051919092169283917f8be0079c531659141344cd1fd0a4f28419497f9722a3daafe3b4186f6b6457e09190a35050565b60008060408385031215620000d157600080fd5b82516001600160a01b0381168114620000e957600080fd5b6020939093015192949293505050565b60805160601c6121256200011f600039600081816101ee015261157101526121256000f3fe608060405234801561001057600080fd5b50600436106101215760003560e01c8063715018a6116100ad578063bc197c8111610071578063bc197c8114610293578063cc6bee54146102b2578063e1489191146102bb578063f23a6e61146102c4578063f2fde38b146102e357600080fd5b8063715018a61461023a5780638456cb59146102425780638a72ea6a1461024a5780638da5cb5b1461026f578063b3de019c1461028057600080fd5b80633f4ba83a116100f45780633f4ba83a146101bb57806340e58ee5146101c3578063454a2ab3146101d65780634ddd108a146101e95780635c975abb1461022857600080fd5b806301ffc9a7146101265780630be80f391461014e578063150b7a021461016357806317e66c351461019a575b600080fd5b610139610134366004611cc5565b6102f6565b60405190151581526020015b60405180910390f35b61016161015c366004611d39565b61032d565b005b610181610171366004611bd6565b630a85bd0160e11b949350505050565b6040516001600160e01b03199091168152602001610145565b6101ad6101a8366004611cef565b6103a5565b604051908152602001610145565b610161610602565b6101616101d1366004611d39565b610636565b6101616101e4366004611d39565b6108a0565b6102107f000000000000000000000000000000000000000000000000000000000000000081565b6040516001600160a01b039091168152602001610145565b600054600160a01b900460ff16610139565b610161610b42565b610161610b76565b61025d610258366004611d39565b610ba8565b60405161014596959493929190611ddf565b6000546001600160a01b0316610210565b61016161028e366004611d52565b610ce9565b6101816102a1366004611b2c565b63bc197c8160e01b95945050505050565b6101ad60025481565b6101ad60015481565b6101816102d2366004611c3e565b63f23a6e6160e01b95945050505050565b6101616102f1366004611b11565b610f82565b60006001600160e01b03198216630271189760e51b148061032757506301ffc9a760e01b6001600160e01b03198316145b92915050565b6000546001600160a01b031633146103605760405162461bcd60e51b815260040161035790611eaa565b60405180910390fd5b600180549082905560408051838152602081018390527f9b8c4484ba5e4a0dde5339b45a03dd83281d6b1958617ee553dfbcd3532b0e2a910160405180910390a15050565b60008054600160a01b900460ff16156103f35760405162461bcd60e51b815260206004820152601060248201526f14185d5cd8589b194e881c185d5cd95960821b6044820152606401610357565b600082116104385760405162461bcd60e51b81526020600482015260126024820152714d61726b65743a207a65726f20707269636560701b6044820152606401610357565b3361044c813061044787611f9f565b61101d565b60026000815461045b9061207c565b91829055506040805160c0810182526001600160a01b038416815260006020820152919350810161048b86611f9f565b81526020018481526020016001548152602001600160038111156104b1576104b16120ad565b9052600083815260036020908152604091829020835181546001600160a01b039182166001600160a01b0319918216178355928501516001808401805492909316919094161790559183015180516002808501805493949093849260ff1990911691908490811115610525576105256120ad565b021790555060208281015182546001600160a01b0390911661010002610100600160a81b031990911617825560408301518051610568926001850192019061199f565b506060820151805161058491600284019160209091019061199f565b505050606082015160058201556080820151600682015560a082015160078201805460ff191660018360038111156105be576105be6120ad565b0217905550506040516001600160a01b038316915083907f7757890bcab34d673dfca6b71df1b57f75a2fe4231d6e8de726caf534ab1fdd690600090a35092915050565b6000546001600160a01b0316331461062c5760405162461bcd60e51b815260040161035790611eaa565b6106346114cf565b565b6000818152600360209081526040808320815160c08101835281546001600160a01b039081168252600183015416938101939093528151608081018352600280830180543397969586019392839160ff1690811115610697576106976120ad565b60028111156106a8576106a86120ad565b8152815461010090046001600160a01b0316602080830191909152600183018054604080518285028101850182528281529401939283018282801561070c57602002820191906000526020600020905b8154815260200190600101908083116106f8575b505050505081526020016002820180548060200260200160405190810160405280929190818152602001828054801561076457602002820191906000526020600020905b815481526020019060010190808311610750575b5050509190925250505081526005820154602082015260068201546040820152600782015460609091019060ff1660038111156107a3576107a36120ad565b60038111156107b4576107b46120ad565b905250905060018160a0015160038111156107d1576107d16120ad565b146107ee5760405162461bcd60e51b815260040161035790611edf565b816001600160a01b031681600001516001600160a01b0316146108495760405162461bcd60e51b815260206004820152601360248201527226b0b935b2ba1d103737ba1031b932b0ba37b960691b6044820152606401610357565b6108583083836040015161101d565b600083815260036020526040808220600701805460ff191660021790555184917fc41d93b8bfbf9fd7cf5bfe271fd649ab6a6fec0ea101c23b82a2a28eca2533a991a2505050565b6000818152600360209081526040808320815160c08101835281546001600160a01b0390811682526001830154169381019390935281516080810183526002808301805493948601939091839160ff1690811115610900576109006120ad565b6002811115610911576109116120ad565b8152815461010090046001600160a01b0316602080830191909152600183018054604080518285028101850182528281529401939283018282801561097557602002820191906000526020600020905b815481526020019060010190808311610961575b50505050508152602001600282018054806020026020016040519081016040528092919081815260200182805480156109cd57602002820191906000526020600020905b8154815260200190600101908083116109b9575b5050509190925250505081526005820154602082015260068201546040820152600782015460609091019060ff166003811115610a0c57610a0c6120ad565b6003811115610a1d57610a1d6120ad565b905250905060018160a001516003811115610a3a57610a3a6120ad565b14610a575760405162461bcd60e51b815260040161035790611edf565b60808101516060820151339160009161271091610a7391611f69565b610a7d9190611f47565b9050610a9b82610a956000546001600160a01b031690565b8361156c565b610ab9828460000151838660600151610ab49190611f88565b61156c565b610ac83083856040015161101d565b6000848152600360208181526040928390206001810180546001600160a01b0319166001600160a01b0388169081179091556007909101805460ff19169093179092558251918252915186927fa4c87919f856d464ae137e2cb78e129ea90b599d0661f1755dbd7d733af7925a928290030190a250505050565b6000546001600160a01b03163314610b6c5760405162461bcd60e51b815260040161035790611eaa565b6106346000611598565b6000546001600160a01b03163314610ba05760405162461bcd60e51b815260040161035790611eaa565b6106346115e8565b6003602052600090815260409081902080546001820154835160808101909452600280840180546001600160a01b03948516969390941694939091839160ff1690811115610bf857610bf86120ad565b6002811115610c0957610c096120ad565b8152815461010090046001600160a01b03166020808301919091526001830180546040805182850281018501825282815294019392830182828015610c6d57602002820191906000526020600020905b815481526020019060010190808311610c59575b5050505050815260200160028201805480602002602001604051908101604052809291908181526020018280548015610cc557602002820191906000526020600020905b815481526020019060010190808311610cb1575b50505091909252505050600582015460068301546007909301549192909160ff1686565b60008111610d2e5760405162461bcd60e51b81526020600482015260126024820152714d61726b65743a207a65726f20707269636560701b6044820152606401610357565b6000828152600360209081526040808320815160c08101835281546001600160a01b039081168252600183015416938101939093528151608081018352600280830180543397969586019392839160ff1690811115610d8f57610d8f6120ad565b6002811115610da057610da06120ad565b8152815461010090046001600160a01b03166020808301919091526001830180546040805182850281018501825282815294019392830182828015610e0457602002820191906000526020600020905b815481526020019060010190808311610df0575b5050505050815260200160028201805480602002602001604051908101604052809291908181526020018280548015610e5c57602002820191906000526020600020905b815481526020019060010190808311610e48575b5050509190925250505081526005820154602082015260068201546040820152600782015460609091019060ff166003811115610e9b57610e9b6120ad565b6003811115610eac57610eac6120ad565b905250905060018160a001516003811115610ec957610ec96120ad565b14610ee65760405162461bcd60e51b815260040161035790611edf565b816001600160a01b031681600001516001600160a01b031614610f415760405162461bcd60e51b815260206004820152601360248201527226b0b935b2ba1d103737ba1031b932b0ba37b960691b6044820152606401610357565b6000848152600360205260408082206005018590555185917fa6dc15bdb68da224c66db4b3838d9a2b205138e8cff6774e57d0af91e196d62291a250505050565b6000546001600160a01b03163314610fac5760405162461bcd60e51b815260040161035790611eaa565b6001600160a01b0381166110115760405162461bcd60e51b815260206004820152602660248201527f4f776e61626c653a206e6577206f776e657220697320746865207a65726f206160448201526564647265737360d01b6064820152608401610357565b61101a81611598565b50565b600181516002811115611032576110326120ad565b141561114d576000816060015151116110875760405162461bcd60e51b815260206004820152601760248201527609ac2e4d6cae87440f4cae4de40d2c8e65cd8cadccee8d604b1b6044820152606401610357565b60005b8160600151518110156111475781602001516001600160a01b03166342842e0e8585856060015185815181106110c2576110c26120c3565b60209081029190910101516040516001600160e01b031960e086901b1681526001600160a01b0393841660048201529290911660248301526044820152606401600060405180830381600087803b15801561111c57600080fd5b505af1158015611130573d6000803e3d6000fd5b50505050808061113f9061207c565b91505061108a565b50505050565b600281516002811115611162576111626120ad565b1415611380576000816060015151116111b75760405162461bcd60e51b815260206004820152601760248201527609ac2e4d6cae87440f4cae4de40d2c8e65cd8cadccee8d604b1b6044820152606401610357565b8060400151518160600151511461122c5760405162461bcd60e51b815260206004820152603360248201527f4d61726b65743a206964732e6c656e67746820616e6420616d6f756e74732e6c604482015272195b99dd1a08185c99481b9bdd08195c5d585b606a1b6064820152608401610357565b60005b81606001515181101561114757600082604001518281518110611254576112546120c3565b60200260200101511161129f5760405162461bcd60e51b815260206004820152601360248201527213585c9ad95d0e881e995c9bc8185b5bdd5b9d606a1b6044820152606401610357565b81602001516001600160a01b031663f242432a8585856060015185815181106112ca576112ca6120c3565b6020026020010151866040015186815181106112e8576112e86120c3565b60209081029190910101516040516001600160e01b031960e087901b1681526001600160a01b0394851660048201529390921660248401526044830152606482015260a06084820152600060a482015260c401600060405180830381600087803b15801561135557600080fd5b505af1158015611369573d6000803e3d6000fd5b5050505080806113789061207c565b91505061122f565b600081516002811115611395576113956120ad565b1415611487576000816040015151116113f05760405162461bcd60e51b815260206004820152601b60248201527f4d61726b65743a207a65726f20616d6f756e74732e6c656e67746800000000006044820152606401610357565b60008160400151600081518110611409576114096120c3565b6020026020010151116114545760405162461bcd60e51b815260206004820152601360248201527213585c9ad95d0e881e995c9bc8185b5bdd5b9d606a1b6044820152606401610357565b611482816020015184848460400151600081518110611475576114756120c3565b6020026020010151611670565b505050565b60405162461bcd60e51b815260206004820152601c60248201527f4d61726b65743a20756e737570706f72746564206974656d54797065000000006044820152606401610357565b600054600160a01b900460ff1661151f5760405162461bcd60e51b815260206004820152601460248201527314185d5cd8589b194e881b9bdd081c185d5cd95960621b6044820152606401610357565b6000805460ff60a01b191690557f5db9ee0a495bf2e6ff9c91a7834c1ba4fdd244a5e8aa4e537bd38aeae4b073aa335b6040516001600160a01b03909116815260200160405180910390a1565b6114827f0000000000000000000000000000000000000000000000000000000000000000848484611670565b600080546001600160a01b038381166001600160a01b0319831681178455604051919092169283917f8be0079c531659141344cd1fd0a4f28419497f9722a3daafe3b4186f6b6457e09190a35050565b600054600160a01b900460ff16156116355760405162461bcd60e51b815260206004820152601060248201526f14185d5cd8589b194e881c185d5cd95960821b6044820152606401610357565b6000805460ff60a01b1916600160a01b1790557f62e78cea01bee320cd4e420270b5ea74000d11b0c9f74754ebdbfc544b05a25861154f3390565b6001600160a01b03831630141561169a576116956001600160a01b03851683836116af565b611147565b6111476001600160a01b038516848484611712565b6040516001600160a01b03831660248201526044810182905261148290849063a9059cbb60e01b906064015b60408051601f198184030181529190526020810180516001600160e01b03166001600160e01b03199093169290921790915261174a565b6040516001600160a01b03808516602483015283166044820152606481018290526111479085906323b872dd60e01b906084016116db565b600061179f826040518060400160405280602081526020017f5361666545524332303a206c6f772d6c6576656c2063616c6c206661696c6564815250856001600160a01b031661181c9092919063ffffffff16565b80519091501561148257808060200190518101906117bd9190611ca3565b6114825760405162461bcd60e51b815260206004820152602a60248201527f5361666545524332303a204552433230206f7065726174696f6e20646964206e6044820152691bdd081cdd58d8d9595960b21b6064820152608401610357565b606061182b8484600085611835565b90505b9392505050565b6060824710156118965760405162461bcd60e51b815260206004820152602660248201527f416464726573733a20696e73756666696369656e742062616c616e636520666f6044820152651c8818d85b1b60d21b6064820152608401610357565b6001600160a01b0385163b6118ed5760405162461bcd60e51b815260206004820152601d60248201527f416464726573733a2063616c6c20746f206e6f6e2d636f6e74726163740000006044820152606401610357565b600080866001600160a01b031685876040516119099190611dc3565b60006040518083038185875af1925050503d8060008114611946576040519150601f19603f3d011682016040523d82523d6000602084013e61194b565b606091505b509150915061195b828286611966565b979650505050505050565b6060831561197557508161182e565b8251156119855782518084602001fd5b8160405162461bcd60e51b81526004016103579190611e77565b8280548282559060005260206000209081019282156119da579160200282015b828111156119da5782518255916020019190600101906119bf565b506119e69291506119ea565b5090565b5b808211156119e657600081556001016119eb565b80356001600160a01b0381168114611a1657600080fd5b919050565b600082601f830112611a2c57600080fd5b8135602067ffffffffffffffff821115611a4857611a486120d9565b8160051b611a57828201611f16565b838152828101908684018388018501891015611a7257600080fd5b600093505b85841015611a95578035835260019390930192918401918401611a77565b50979650505050505050565b600082601f830112611ab257600080fd5b813567ffffffffffffffff811115611acc57611acc6120d9565b611adf601f8201601f1916602001611f16565b818152846020838601011115611af457600080fd5b816020850160208301376000918101602001919091529392505050565b600060208284031215611b2357600080fd5b61182e826119ff565b600080600080600060a08688031215611b4457600080fd5b611b4d866119ff565b9450611b5b602087016119ff565b9350604086013567ffffffffffffffff80821115611b7857600080fd5b611b8489838a01611a1b565b94506060880135915080821115611b9a57600080fd5b611ba689838a01611a1b565b93506080880135915080821115611bbc57600080fd5b50611bc988828901611aa1565b9150509295509295909350565b60008060008060808587031215611bec57600080fd5b611bf5856119ff565b9350611c03602086016119ff565b925060408501359150606085013567ffffffffffffffff811115611c2657600080fd5b611c3287828801611aa1565b91505092959194509250565b600080600080600060a08688031215611c5657600080fd5b611c5f866119ff565b9450611c6d602087016119ff565b93506040860135925060608601359150608086013567ffffffffffffffff811115611c9757600080fd5b611bc988828901611aa1565b600060208284031215611cb557600080fd5b8151801515811461182e57600080fd5b600060208284031215611cd757600080fd5b81356001600160e01b03198116811461182e57600080fd5b60008060408385031215611d0257600080fd5b823567ffffffffffffffff811115611d1957600080fd5b830160808186031215611d2b57600080fd5b946020939093013593505050565b600060208284031215611d4b57600080fd5b5035919050565b60008060408385031215611d6557600080fd5b50508035926020909101359150565b600081518084526020808501945080840160005b83811015611da457815187529582019590820190600101611d88565b509495945050505050565b60048110611dbf57611dbf6120ad565b9052565b60008251611dd5818460208701612050565b9190910192915050565b6001600160a01b038781168252868116602083015260c0604083015285516000919060038110611e1157611e116120ad565b60c084015260208701511660e083015260408601516080610100840152611e3c610140840182611d74565b9050606087015160bf1984830301610120850152611e5a8282611d74565b9250505084606083015283608083015261195b60a0830184611daf565b6020815260008251806020840152611e96816040850160208701612050565b601f01601f19169190910160400192915050565b6020808252818101527f4f776e61626c653a2063616c6c6572206973206e6f7420746865206f776e6572604082015260600190565b6020808252601c908201527f4d61726b65743a20696e76616c6964206f666665722073746174757300000000604082015260600190565b604051601f8201601f1916810167ffffffffffffffff81118282101715611f3f57611f3f6120d9565b604052919050565b600082611f6457634e487b7160e01b600052601260045260246000fd5b500490565b6000816000190483118215151615611f8357611f83612097565b500290565b600082821015611f9a57611f9a612097565b500390565b600060808236031215611fb157600080fd5b6040516080810167ffffffffffffffff8282108183111715611fd557611fd56120d9565b816040528435915060038210611fea57600080fd5b818352611ff9602086016119ff565b6020840152604085013591508082111561201257600080fd5b61201e36838701611a1b565b6040840152606085013591508082111561203757600080fd5b5061204436828601611a1b565b60608301525092915050565b60005b8381101561206b578181015183820152602001612053565b838111156111475750506000910152565b600060001982141561209057612090612097565b5060010190565b634e487b7160e01b600052601160045260246000fd5b634e487b7160e01b600052602160045260246000fd5b634e487b7160e01b600052603260045260246000fd5b634e487b7160e01b600052604160045260246000fdfea264697066735822122012cedd8bb1f0ded176ffea79c674d8cf95d30d1c1df1c4dd3b84480991c3bf5c64736f6c63430008070033",
  "devdoc": {
    "kind": "dev",
    "methods": {
      "onERC721Received(address,address,uint256,bytes)": {
        "details": "See {IERC721Receiver-onERC721Received}. Always returns `IERC721Receiver.onERC721Received.selector`."
      },
      "owner()": {
        "details": "Returns the address of the current owner."
      },
      "paused()": {
        "details": "Returns true if the contract is paused, and false otherwise."
      },
      "renounceOwnership()": {
        "details": "Leaves the contract without owner. It will not be possible to call `onlyOwner` functions anymore. Can only be called by the current owner. NOTE: Renouncing ownership will leave the contract without an owner, thereby removing any functionality that is only available to the owner."
      },
      "supportsInterface(bytes4)": {
        "details": "See {IERC165-supportsInterface}."
      },
      "transferOwnership(address)": {
        "details": "Transfers ownership of the contract to a new account (`newOwner`). Can only be called by the current owner."
      }
    },
    "version": 1
  },
  "userdoc": {
    "kind": "user",
    "methods": {},
    "version": 1
  },
  "storageLayout": {
    "storage": [
      {
        "astId": 1568,
        "contract": "contracts/FixedPriceMarket.sol:FixedPriceMarket",
        "label": "_owner",
        "offset": 0,
        "slot": "0",
        "type": "t_address"
      },
      {
        "astId": 2905,
        "contract": "contracts/FixedPriceMarket.sol:FixedPriceMarket",
        "label": "_paused",
        "offset": 20,
        "slot": "0",
        "type": "t_bool"
      },
      {
        "astId": 11141,
        "contract": "contracts/FixedPriceMarket.sol:FixedPriceMarket",
        "label": "commission",
        "offset": 0,
        "slot": "1",
        "type": "t_uint256"
      },
      {
        "astId": 10017,
        "contract": "contracts/FixedPriceMarket.sol:FixedPriceMarket",
        "label": "numOffers",
        "offset": 0,
        "slot": "2",
        "type": "t_uint256"
      },
      {
        "astId": 10022,
        "contract": "contracts/FixedPriceMarket.sol:FixedPriceMarket",
        "label": "offers",
        "offset": 0,
        "slot": "3",
        "type": "t_mapping(t_uint256,t_struct(Offer)9995_storage)"
      }
    ],
    "types": {
      "t_address": {
        "encoding": "inplace",
        "label": "address",
        "numberOfBytes": "20"
      },
      "t_array(t_uint256)dyn_storage": {
        "base": "t_uint256",
        "encoding": "dynamic_array",
        "label": "uint256[]",
        "numberOfBytes": "32"
      },
      "t_bool": {
        "encoding": "inplace",
        "label": "bool",
        "numberOfBytes": "1"
      },
      "t_enum(ItemType)11112": {
        "encoding": "inplace",
        "label": "enum ItemType",
        "numberOfBytes": "1"
      },
      "t_enum(OfferStatus)9980": {
        "encoding": "inplace",
        "label": "enum FixedPriceMarket.OfferStatus",
        "numberOfBytes": "1"
      },
      "t_mapping(t_uint256,t_struct(Offer)9995_storage)": {
        "encoding": "mapping",
        "key": "t_uint256",
        "label": "mapping(uint256 => struct FixedPriceMarket.Offer)",
        "numberOfBytes": "32",
        "value": "t_struct(Offer)9995_storage"
      },
      "t_struct(Item)11124_storage": {
        "encoding": "inplace",
        "label": "struct Item",
        "members": [
          {
            "astId": 11115,
            "contract": "contracts/FixedPriceMarket.sol:FixedPriceMarket",
            "label": "itemType",
            "offset": 0,
            "slot": "0",
            "type": "t_enum(ItemType)11112"
          },
          {
            "astId": 11117,
            "contract": "contracts/FixedPriceMarket.sol:FixedPriceMarket",
            "label": "addr",
            "offset": 1,
            "slot": "0",
            "type": "t_address"
          },
          {
            "astId": 11120,
            "contract": "contracts/FixedPriceMarket.sol:FixedPriceMarket",
            "label": "amounts",
            "offset": 0,
            "slot": "1",
            "type": "t_array(t_uint256)dyn_storage"
          },
          {
            "astId": 11123,
            "contract": "contracts/FixedPriceMarket.sol:FixedPriceMarket",
            "label": "ids",
            "offset": 0,
            "slot": "2",
            "type": "t_array(t_uint256)dyn_storage"
          }
        ],
        "numberOfBytes": "96"
      },
      "t_struct(Offer)9995_storage": {
        "encoding": "inplace",
        "label": "struct FixedPriceMarket.Offer",
        "members": [
          {
            "astId": 9982,
            "contract": "contracts/FixedPriceMarket.sol:FixedPriceMarket",
            "label": "creator",
            "offset": 0,
            "slot": "0",
            "type": "t_address"
          },
          {
            "astId": 9984,
            "contract": "contracts/FixedPriceMarket.sol:FixedPriceMarket",
            "label": "bidder",
            "offset": 0,
            "slot": "1",
            "type": "t_address"
          },
          {
            "astId": 9987,
            "contract": "contracts/FixedPriceMarket.sol:FixedPriceMarket",
            "label": "item",
            "offset": 0,
            "slot": "2",
            "type": "t_struct(Item)11124_storage"
          },
          {
            "astId": 9989,
            "contract": "contracts/FixedPriceMarket.sol:FixedPriceMarket",
            "label": "price",
            "offset": 0,
            "slot": "5",
            "type": "t_uint256"
          },
          {
            "astId": 9991,
            "contract": "contracts/FixedPriceMarket.sol:FixedPriceMarket",
            "label": "commission",
            "offset": 0,
            "slot": "6",
            "type": "t_uint256"
          },
          {
            "astId": 9994,
            "contract": "contracts/FixedPriceMarket.sol:FixedPriceMarket",
            "label": "status",
            "offset": 0,
            "slot": "7",
            "type": "t_enum(OfferStatus)9980"
          }
        ],
        "numberOfBytes": "256"
      },
      "t_uint256": {
        "encoding": "inplace",
        "label": "uint256",
        "numberOfBytes": "32"
      }
    }
  }
}